:10000000A7EF10F0F76A140FF66E000EF722090042
:10001000F5501200280C010654656C6573636F700F
:1000200065436F6E74726F6C000041677561726436
:1000300065004573636F6C686120756D20706F6C2F
:100040006F3A00004E6F7274652831292020537575
:100050006C283229000020436F6E6669726D6172F0
:1000600020706F6C6F20000020202020204E6F72C7
:1000700074653F2020202020000020202020202008
:1000800053756C3F2020202020200000416C696EB9
:1000900068616D656E746F20204F4B3F00004148D2
:1000A0003D313868204445433D3930646567000080
:1000B00041483D3668204445433D2D3930646567ED
:1000C00000004573636F6C686120756D206D6F640F
:1000D0006F3A00004D616E75616C2831294175746D
:1000E0006F28322900002041636F6D70616E686176
:1000F0006D656E746F20000020202020206C6967E1
:1001000061646F2020202020000041483D007320C2
:10011000202020004445433D2B004445433D2D0015
:1001200064656720000041483D004445433D0000B0
:10013000646567002056616C6F7220496E76616C51
:1001400069646F200000EA6A460EE96EEF500EE027
:100150000F0E016E006A002EFED7012EFBD78F0E08
:10016000006E002EFED70000EF2EF2D712004D38A1
:10017000F00B006E0F0E83140010836E000083845A
:10018000070E006E002EFED700D083941200F00EF2
:10019000956E838200008384000083380F0B4D6EC0
:1001A000839400008384030E006E002EFED700D0DF
:1001B00083380F0B4C6E8394000E956E4D38006E95
:1001C000F00E001600504C10016EE9EF00F0839025
:1001D000DED701C04CF001BEFBD74AA083904AB0E5
:1001E000838000008392000083944B384C6E0F0E86
:1001F0004C164CC04DF0BBDF4B500F0B4C6E4D6E90
:10020000B6DF1200000E956E8390839283940F0EDA
:10021000466E99DF010E226E2250030808E3030E9A
:100220004D6EA5DF050E466E8EDF222AF5D7020E33
:100230004D6E9DDF226A225003080EE3036A2250AE
:10024000F2CF23F0F29EDEDE23BEF28E236E4A6AE8
:100250004B6EBDDF222AEFD7D8EF10F0808280846A
:1002600080861200472C01D003D0400E486E01D08A
:10027000486A010E465C482648508009496E4A6A21
:100280004B6EA5DF120045500C0A05E0060A0BE094
:10029000020A0FE013D04A6A010E4B6E98DF020E7D
:1002A000466E51DF10D0010E466E020E476EDADF49
:1002B0000AD04A6A100E4B6E8ADF05D0010E4A6ED4
:1002C00045C04BF084DF12000900F5520CE0F6CF78
:1002D00043F0F7CF44F0F5CF45F0D5DF43C0F6FF4C
:1002E00044C0F7FFF1D71200640E226E0C0E456E6B
:1002F000CADF010E466E476EB5DF180EF66E000EB1
:10030000F76EE2DF050E466E1EDF040E466E020E2D
:10031000476EA8DF2A0EF66E000EF76ED5DF22C0FC
:1003200046F011DF2E0E456EAEDF22C046F00BDF29
:100330002E0E456EA8DF22C046F005DF2E0E456E5C
:10034000A2DF22C046F0FFDEDCEF10F0809281B821
:1003500006D081A8FED782DF010E016E5FD081BA80
:1003600006D081AAFED77ADF040E016E57D081BC79
:1003700006D081ACFED772DF070E016E4FD081BE72
:1003800006D081AEFED76ADF0A0E016E47D066DF67
:10039000809481B806D081A8FED760DF020E016E7E
:1003A0003DD081BA06D081AAFED758DF050E016E76
:1003B00035D081BC06D081ACFED750DF080E016E6F
:1003C0002DD081BE06D081AEFED748DF000E016E73
:1003D00025D044DF809681B806D081A8FED73EDFC5
:1003E000030E016E1BD081BA06D081AAFED736DF7C
:1003F000060E016E13D081BC06D081ACFED72EDF75
:10040000090E016E0BD081BE06D081AEFED726DF6D
:100410000B0E016E03D022DF0C0E016E12000C0ECB
:10042000456E31DF010E466E476E1CDF320EF66EF2
:10043000000EF76E49DF050E466E85DE010E466E34
:10044000020E476E0FDF440EF66E000EF76E3CDFB5
:10045000050E466E78DE042C01D006D0045002084A
:1004600003E0020E046EF7D70C0E456E0CDF010E92
:10047000466E476EF7DE560EF66E000EF76E24DF00
:10048000050E466E60DE042C1DD0046A010E466E19
:10049000020E476EE7DE680EF66E000EF76E14DF92
:1004A000050E466E50DE010E056E0B6A0A6A100ECE
:1004B000096E830E086E0F6A0E6A340E0D6E850E7D
:1004C0000C6E1CD0046A010E466E020E476ECADE28
:1004D0007A0EF66E000EF76EF7DE050E466E33DE10
:1004E000020E056E0B6A0A6A400E096E810E086ED6
:1004F0000F6A0E6AB40E0D6E850E0C6E04500A085B
:1005000007E004500B0804E021DF01C004F0F6D737
:1005100004500A0801E183D7046ADEEF10F00C0EE4
:10052000456EB1DE010E466E476E9CDE8C0EF66E99
:10053000000EF76EC9DE050E466E05DE052C0ED0E8
:10054000010E466E020E476E8DDE9E0EF66E000E9A
:10055000F76EBADE050E466EF6DD10D005500208C5
:100560000DE1010E466E020E476E7CDEB00EF66E99
:10057000000EF76EA9DE050E466EE5DD04500B0891
:1005800004E0E4DE01C004F0F9D7046AE0EF10F003
:100590008E0E006E4550005E46C002F047C001F06E
:1005A000028E005209E0D890025202E1015204E0AA
:1005B00002320132002EF7D746AE05D0011E021ED0
:1005C000012AD8B4022A12008E0E006E48C001F033
:1005D00047C002F0036A015209E102C001F0026A59
:1005E000080E005E015202E1006A08D0D89001BEF8
:1005F00004D0023601360006F9D7019E1200800EA3
:10060000D8B24C1A516A526A48C050F04C50501A35
:100610004750D8B4DCD04F6E006E4B50D8B4E0D009
:100620004F5ED8B481D03DE34CC055F0558E4DC0DF
:1006300054F04EC053F0526AD8905532543253326F
:1006400052324F2EF8D750AE03D05180DDD05190AA
:100650004F905188EA6A4A0EE96EE9D0519850BE2F
:100660000AD04FA013D05532543253325232002A9E
:10067000D8B4C5D00BD055BE0CD0D8905236533616
:10068000543655360006D8B4BAD0F5D7518C6BD055
:10069000519C48C050F048AE02D0558EA9D0559E0E
:1006A000A7D04BC04FF04BC000F047504F5E48C042
:1006B00055F0558E49C054F04AC053F0526AD89054
:1006C00055325432533252324F2EF8D750AE03D0F7
:1006D00051829AD051924F90518AEA6A4E0EE96E39
:1006E000A6D0519A50BE0AD04FA013D055325432E2
:1006F00053325232002AD8B482D00BD055BE0CD01F
:10070000D89052365336543655360006D8B477D082
:10071000F5D7518E28D0519E4CC050F04CAE02D02F
:10072000558E66D0559E64D04CC055F0558E4DC048
:1007300054F04EC053F050AE04D0559E518464D056
:100740005194526A4F90EA6A4A0EE96E70D050BED8
:100750001CD048C050F04FA006D05532543253320E
:100760005232002A4CE052AE0BD0532A09E1542AEF
:1007700007E1552A05E1553254325332002A3FE051
:1007800051BC86D751BEC7D71CD0800E551A55AE66
:1007900004D03AD04CC050F00AD048C050F0555266
:1007A00006E1545204E1535202E1006A21D055BEE1
:1007B00008D0D8905236533654365536002EF7D7D7
:1007C0001ED050AE02D0558E13D0559E11D04BC0C6
:1007D00000F04CC055F04DC054F04EC053F008D05E
:1007E00047C000F048C055F049C054F04AC053F02B
:1007F00055C001F054C002F053C003F034D0006A79
:10080000016A026A036A2FD0526A531E541E551E93
:10081000521E522A05E1532A03E1542A01E1552AC6
:1008200051B015D751B256D751B48AD7B3D7EF507C
:10083000532605E3542A03E1552AD8B44F80ED52DC
:10084000EF50542603E3552AD8B44F80ED52EF50B1
:10085000EFBE01D0800A5526D8B04F8051B8FED6E1
:1008600051BA3FD774D712004750D8B471D0006E38
:100870004B50D8B46DD0002604E3810E002668E208
:1008800004D07F0E005E64E363E048C04FF04C503C
:100890004F1A488E4C8E4A504E02F4CF51F04950B8
:1008A0004D02F4CF03F0F3CF50F04E02F350512637
:1008B000F4505022000E03224A504D02F3505126AC
:1008C000F4505022000E026A0322022248504E02C7
:1008D000F3505026F4500322000E022248504D02DD
:1008E000F3500326F4500222000E016A01224A50FE
:1008F0004C02F3505026F4500322000E0222012233
:1009000049504C02F3500326F4500222000E0122FB
:1009100048504C02F3500226F4500122002A01BE36
:1009200005D050360336023601360006000E50AEB2
:100930000AD0032A02220122015005E1025003E1FC
:10094000035001E1002A4FBE018E4FAE019E04D03C
:10095000006A016A026A036A1200486A44C047F0EA
:1009600033DE03C04AF002C049F001C048F000C0C5
:1009700047F0CD0E4E6ECC0E4D6E4C0E4C6E7B0E77
:100980004B6E72DF03C048F002C047F001C046F072
:1009900000C045F0FDDD0150120045500A0DF35036
:1009A000445C016E1200EF520FE0EACF44F0E9CF51
:1009B00043F0EFCF45F067DC44C0EAFF43C0E9FFF6
:1009C000E92AD8B4EA2AEFD7120044C04BF04850C5
:1009D0004B1A4BAE05D0D894D89044BED8802FD0B7
:1009E00044C04BF047C04CF043504C5E06E04BAE69
:1009F00026D0D850010AD86E22D048C04CF04450BE
:100A00004C5E06E04BAE1BD0D850010AD86E17D012
:100A100049C04CF045504C5E06E04BAE10D0D8506B
:100A2000010AD86E0CD04AC04CF046504C5E06E02D
:100A30004BAE05D0D850010AD86E01D0D890120024
:100A4000010E356E0BC048F00AC047F009C046F0F1
:100A500008C045F09DDD01C02CF0486A2CC047F06D
:100A6000B3DDD8820BC04AF00AC049F009C048F093
:100A700008C047F003C04EF002C04DF001C04CF07A
:100A800000C04BF0BCDD03C046F002C045F001C021
:100A900044F000C043F003C04AF002C049F001C076
:100AA00048F000C047F04E6A4D6A700E4C6E840EDE
:100AB0004B6EDADE03C03EF002C03DF001C03CF0F8
:100AC00000C03BF03EC048F03DC047F03CC046F09F
:100AD0003BC045F05DDD01C02DF0486A2DC047F0F8
:100AE00073DDD8823EC04AF03DC049F03CC048F0BA
:100AF0003BC047F003C04EF002C04DF001C04CF0C7
:100B000000C04BF07CDD03C046F002C045F001C0E0
:100B100044F000C043F003C04AF002C049F001C0F5
:100B200048F000C047F04E6A4D6A700E4C6E840E5D
:100B30004B6E9ADE03C048F002C047F001C046F099
:100B400000C045F025DD01C02EF02CC044F005DFCB
:100B500001C02FF02CC044F02FC045F01EDF01C0B3
:100B600030F02DC044F0F9DE01C031F02DC044F06A
:100B700031C045F012DF01C032F02EC044F0EDDE8E
:100B800001C033F02EC044F033C045F006DF01C091
:100B900034F00C0E456E43EC01F0010E466E476ECC
:100BA00032EC01F00A0EF66E010EF76E64EC01F005
:100BB00035C046F0A3EC00F0040E466E010E476E01
:100BC00032EC01F0300E2F24076EEA6A070EE96E50
:100BD000EADE35C046F0A3EC00F0050E466E010ECD
:100BE000476E32EC01F0300E3024076EEA6A070ED1
:100BF000E96ED9DE35C046F0A3EC00F0060E466E75
:100C0000010E476E32EC01F0680E456E43EC01F0C8
:100C100035C046F0A3EC00F0070E466E010E476E9D
:100C200032EC01F0300E3124076EEA6A070EE96EED
:100C3000BADE35C046F0A3EC00F0080E466E010E99
:100C4000476E32EC01F0300E3224076EEA6A070E6E
:100C5000E96EA9DE35C046F0A3EC00F0090E466E41
:100C6000010E476E32EC01F06D0E456E43EC01F063
:100C700035C046F0A3EC00F00A0E466E010E476E3A
:100C800032EC01F0300E3324076EEA6A070EE96E8B
:100C90008ADE35C046F0A3EC00F00B0E466E010E66
:100CA000476E32EC01F0300E3424076EEA6A070E0C
:100CB000E96E79DE35C046F0A3EC00F00C0E466E0E
:100CC000010E476E32EC01F00E0EF66E010EF76E5D
:100CD00064EC01F035C046F0A3EC00F00FC046F024
:100CE0000EC045F00DC044F00CC043F04A6A496A9A
:100CF000486A476A6ADE18E30FC04AF00EC049F03E
:100D00000DC048F00CC047F04E6A4D6A800E4C6E24
:100D10007F0E4B6EA9DD03C042F002C041F001C05E
:100D200040F000C03FF008D00FC042F00EC041F0CC
:100D30000DC040F00CC03FF042C048F041C047F049
:100D400040C046F03FC045F023DC01C043F001C085
:100D500044F003DE01C036F042C048F041C047F025
:100D600040C046F03FC045F013DC01C043F001C075
:100D700044F036C045F011DE01C037F036500A0DA0
:100D8000F3503724486A476E1FDCD88242C04AF0CD
:100D900041C049F040C048F03FC047F003C04EF0AA
:100DA00002C04DF001C04CF000C04BF028DC03C085
:100DB0003EF002C03DF001C03CF000C03BF03EC040
:100DC0004AF03DC049F03CC048F03BC047F04E6A95
:100DD0004D6A200E4C6E820E4B6E46DD03C048F00D
:100DE00002C047F001C046F000C045F0C8EC02F078
:100DF00001C038F03EC04AF03DC049F03CC048F068
:100E00003BC047F04E6A4D6A480E4C6E850E4B6EE5
:100E10002BDD03C046F002C045F001C044F000C025
:100E200043F038500A0DF350486A476EE4EC02F084
:100E3000D88246C04AF045C049F044C048F043C09B
:100E400047F003C04EF002C04DF001C04CF000C0AE
:100E50004BF0FFEC02F003C048F002C047F001C0C5
:100E600046F000C045F0C8EC02F001C039F03EC0C9
:100E70004AF03DC049F03CC048F03BC047F04E6AE4
:100E80004D6A7A0E4C6E880E4B6EEEDC03C046F057
:100E900002C045F001C044F000C043F03850640D7A
:100EA000F3CF47F039500A0DF3504724486A476E94
:100EB000E4EC02F0D88246C04AF045C049F044C094
:100EC00048F043C047F003C04EF002C04DF001C0EF
:100ED0004CF000C04BF0FFEC02F003C048F002C041
:100EE00047F001C046F000C045F0C8EC02F001C078
:100EF0003AF0010E466E020E476E32EC01F0466A81
:100F0000456A446A436A0FC04AF00EC049F00DC0FA
:100F100048F00CC047F059DD01E207E1140EF66E0F
:100F2000010EF76E64EC01F006D01A0EF66E010E9B
:100F3000F76E64EC01F035C046F0A3EC00F0060E4D
:100F4000466E020E476E32EC01F0300E3624076E0C
:100F5000EA6A070EE96E27DD35C046F0A3EC00F023
:100F6000070E466E020E476E32EC01F0300E37244B
:100F7000076EEA6A070EE96E16DD35C046F0A3EC8F
:100F800000F0080E466E020E476E32EC01F02E0E97
:100F9000456E43EC01F035C046F0A3EC00F0090EBD
:100FA000466E020E476E32EC01F0300E3824076EAA
:100FB000EA6A070EE96EF7DC35C046F0A3EC00F0F4
:100FC0000A0E466E020E476E32EC01F0300E3924E6
:100FD000076EEA6A070EE96EE6DC35C046F0A3EC60
:100FE00000F00B0E466E020E476E32EC01F0300E32
:100FF0003A24076EEA6A070EE96ED5DC35C046F082
:10100000A3EC00F00C0E466E020E476E32EC01F0BF
:10101000200EF66E010EF76E64EC01F035C046F05E
:10102000A3EC00F012000BC046F00AC045F009C066
:1010300044F008C043F04A6A496A400E486E820E86
:10104000476EC3DC1AE3D8920BC04AF00AC049F0DD
:1010500009C048F008C047F04E6A4D6A400E4C6E19
:10106000820E4B6EFFEC02F003C00BF002C00AF0E0
:1010700001C009F000C008F019D0D8820BC04AF0B6
:101080000AC049F009C048F008C047F04E6A4D6AEE
:10109000400E4C6E820E4B6EFFEC02F003C00BF064
:1010A00002C00AF001C009F000C008F087EF08F0A4
:1010B000809281B808D081A8FED70650090801E3C4
:1010C000062A2EEC01F081BA05D02EEC01F0040EB8
:1010D000016E3DD081BE05D02EEC01F00A0E016EEE
:1010E00036D02EEC01F0809481B805D02EEC01F0C2
:1010F000020E016E2CD081BC05D02EEC01F0080E42
:10110000016E25D081BA04D081AAFED78CD798DC95
:101110002EEC01F0809681B808D081A8FED7065049
:10112000030801E206062EEC01F081BA05D02EEC90
:1011300001F0060E016E0BD081BE05D02EEC01F041
:101140000B0E016E04D02EEC01F0000E016E22EFAA
:1011500009F00550020819E182802CC046F0A3EC8A
:1011600000F0829084842CC046F0A3EC00F08494BC
:1011700084822CC046F0A3EC00F0849284802CC0C2
:1011800046F0A3EC00F084901AD0052C18D084808F
:101190002CC046F0A3EC00F0849084822CC046F072
:1011A000A3EC00F0849284842CC046F0A3EC00F001
:1011B000849482802CC046F0A3EC00F08290120050
:1011C0000550020819E184802CC046F0A3EC00F021
:1011D000849084822CC046F0A3EC00F08492848436
:1011E0002CC046F0A3EC00F0849482802CC046F022
:1011F000A3EC00F082901AD0052C18D082802CC06D
:1012000046F0A3EC00F0829084842CC046F0A3EC5E
:1012100000F0849484822CC046F0A3EC00F0849209
:1012200084802CC046F0A3EC00F084901200226A67
:1012300007DC04500A08D8B40CD204500B08D8B408
:1012400008D236D701C004F00450040859E10BC09D
:1012500046F00AC045F009C044F008C043F04A6AAD
:10126000496A400E486E820E476EE5EC04F004E3D6
:1012700006C02CF06EDF03D006C02CF0A1DF1BC02F
:101280004AF01AC049F019C048F018C047F04E6A39
:101290004D6A4C6A810E4B6E34EC04F0D8820BC060
:1012A0004AF00AC049F009C048F008C047F003C03E
:1012B0004EF002C04DF001C04CF000C04BF0FFEC0E
:1012C00002F003C00BF002C00AF001C009F000C038
:1012D00008F00BC046F00AC045F009C044F008C051
:1012E00043F04A6A496A486A476AE5EC04F006E353
:1012F0000B6A0A6A400E096E830E086E20EC05F038
:101300000450060859E10BC046F00AC045F009C078
:1013100044F008C043F04A6A496A400E486E820EA3
:10132000476EE5EC04F004E306C02CF049DF03D07F
:1013300006C02CF00EDF1BC04AF01AC049F019C0DD
:1013400048F018C047F04E6A4D6A4C6A810E4B6EE9
:1013500034EC04F0D8920BC04AF00AC049F009C03E
:1013600048F008C047F003C04EF002C04DF001C085
:101370004CF000C04BF0FFEC02F003C00BF002C0D9
:101380000AF001C009F000C008F0466A456A400E44
:10139000446E830E436E0BC04AF00AC049F009C088
:1013A00048F008C047F0E5EC04F004E30B6A0A6A71
:1013B000096A086A20EC05F004500208D8A4A2D0FB
:1013C000466A456A400E446E820E436E0BC04AF078
:1013D0000AC049F009C048F008C047F0E5EC04F045
:1013E0003FE3466A456AB40E446E850E436E0FC0F5
:1013F0004AF00EC049F00DC048F00CC047F0E5ECD3
:1014000004F02EE31FC04AF01EC049F01DC048F092
:101410001CC047F04E6A4D6A4C6A810E4B6E34EC2C
:1014200004F0D8820FC04AF00EC049F00DC048F059
:101430000CC047F003C04EF002C04DF001C04CF0AC
:1014400000C04BF0FFEC02F003C00FF002C00EF042
:1014500001C00DF000C00CF006C02CF0B1DE50D081
:101460000BC046F00AC045F009C044F008C043F084
:101470004A6A496A400E486E820E476EE5EC04F0F7
:1014800001E23EE10FC046F00EC045F00DC044F051
:101490000CC043F04A6A496A340E486E850E476EA6
:1014A000E5EC04F02DE31FC04AF01EC049F01DC05A
:1014B00048F01CC047F04E6A4D6A4C6A810E4B6E74
:1014C00034EC04F0D8920FC04AF00EC049F00DC0C1
:1014D00048F00CC047F003C04EF002C04DF001C010
:1014E0004CF000C04BF0FFEC02F003C00FF002C064
:1014F0000EF001C00DF000C00CF006C02CF060DE54
:1015000020EC05F004500808D8A4A2D0466A456A29
:10151000400E446E820E436E0BC04AF00AC049F082
:1015200009C048F008C047F0E5EC04F03FE30FC005
:1015300046F00EC045F00DC044F00CC043F04A6ABE
:10154000496A340E486E850E476EE5EC04F02EE3D2
:101550001FC04AF01EC049F01DC048F01CC047F033
:101560004E6A4D6A4C6A810E4B6E34EC04F0D89290
:101570000FC04AF00EC049F00DC048F00CC047F053
:1015800003C04EF002C04DF001C04CF000C04BF063
:10159000FFEC02F003C00FF002C00EF001C00DF02E
:1015A00000C00CF006C02CF0D4DD50D00BC046F0CB
:1015B0000AC045F009C044F008C043F04A6A496ACD
:1015C000400E486E820E476EE5EC04F001E23EE10B
:1015D000466A456AB40E446E850E436E0FC04AF0EB
:1015E0000EC049F00DC048F00CC047F0E5EC04F027
:1015F0002DE31FC04AF01EC049F01DC048F01CC0BA
:1016000047F04E6A4D6A4C6A810E4B6E34EC04F022
:10161000D8820FC04AF00EC049F00DC048F00CC08F
:1016200047F003C04EF002C04DF001C04CF000C0C6
:101630004BF0FFEC02F003C00FF002C00EF001C04F
:101640000DF000C00CF006C02CF083DD20EC05F09E
:10165000F0D579EF10F00C0E046E04500C0805E183
:10166000A6EC01F001C004F0F8D704C001F01200AC
:101670002F50016A2E5C03E22EC000F00CD0006AED
:10168000080E306E2E3600362F50005CD8B0006E3B
:101690000136302EF7D71200016A026A006A036A27
:1016A000315002E1305018E0100E326ED8902E36D4
:1016B0002F36003603363150035C02E13050005CB7
:1016C00007E33050005ED8A003063150035ED88097
:1016D00001360236322EEAD712002E503002F3CFF6
:1016E00001F0F4CF00F03102F35000262F50300209
:1016F000F3500020026E12002A6A2A500108D8A076
:101700001FD32A5215E10C0E456E43EC01F0010E79
:10171000466E476E32EC01F0260EF66E010EF76E45
:1017200064EC01F0050E466EA3EC00F0040E296E89
:101730002A2C58D0010E466E020E476E32EC01F094
:101740002A0EF66E010EF76E64EC01F0050E466E81
:10175000A3EC00F080DF01C028F0282C01D00FD0CE
:10176000285004080CE02850080809E02850020816
:1017700006E02850030803E028500608EBE1282C77
:1017800001D006D02850040803E0285008080FE1D3
:10179000050E466E020E476E32EC01F02D0E456EC0
:1017A00043EC01F0050E466EA3EC00F028682850CB
:1017B000020806E02850030803E02850060810E15C
:1017C000050E466E020E476E32EC01F02B0E456E92
:1017D00043EC01F0050E466EA3EC00F0010E286EFE
:1017E000060E296E2B6A2B500508D8A074D0036A08
:1017F0002B50220F016E000E032201C02CF003C0FB
:101800002DF029DF2DC0EAFF2CC0E9FF01C0EFFF5A
:10181000036A2B50220FE96E000E0320EA6E300E91
:10182000EF24076E010E2A242C6E29C046F0476E65
:1018300032EC01F0295006080BE12A5209E1680E4A
:10184000456E43EC01F0050E466EA3EC00F0292A2C
:10185000295008080EE12A2C0CD0300EF66E010E2D
:10186000F76E64EC01F0050E466EA3EC00F0030E7B
:1018700029262950090802E12A5205E029500D08BD
:101880000BE12A2C09D06D0E456E43EC01F0050EDC
:10189000466EA3EC00F0292A010E2A242C6E29C0E2
:1018A00046F0476E32EC01F0EA6A070EE96ED3ECBF
:1018B00004F0050E466EA3EC00F0292A036A2B50B3
:1018C000220FE96E000E0320EA6EEF500A0801E1D4
:1018D00013D72B2A88D7010E2A242C6E29C046F054
:1018E000476E32EC01F0730E456E43EC01F0050ECD
:1018F000466EA3EC00F02A52D8A40CD122500A0D57
:10190000F350486A476EE4EC02F003C013F002C0E3
:1019100012F001C011F000C010F0486A23C047F077
:10192000E4EC02F0D89213C04AF012C049F011C0A2
:1019300048F010C047F003C04EF002C04DF001C0A7
:101940004CF000C04BF0FFEC02F003C013F002C0FB
:1019500012F001C011F000C010F024500A0DF3CFB6
:101960002DF02DC02EF03C0E2F6E82DE0150486A05
:10197000476EE4EC02F0D89213C04AF012C049F06E
:1019800011C048F010C047F003C04EF002C04DF047
:1019900001C04CF000C04BF0FFEC02F003C013F0AC
:1019A00002C012F001C011F000C010F025C02EF0EE
:1019B0003C0E2F6E5DDE0150486A476EE4EC02F08B
:1019C000D89213C04AF012C049F011C048F010C0BC
:1019D00047F003C04EF002C04DF001C04CF000C013
:1019E0004BF0FFEC02F003C013F002C012F001C094
:1019F00011F000C010F026500A0DF3CF2DF02F6A21
:101A00002DC02EF00E0E316E100E306E45DE02C06F
:101A100003F001C047F002C048F0E4EC02F0D892B5
:101A200013C04AF012C049F011C048F010C047F08E
:101A300003C04EF002C04DF001C04CF000C04BF0AE
:101A4000FFEC02F003C013F002C012F001C011F06D
:101A500000C010F02F6A27C02EF00E0E316E100E4F
:101A6000306E1ADE02C003F001C047F002C048F039
:101A7000E4EC02F0D89213C04AF012C049F011C051
:101A800048F010C047F003C04EF002C04DF001C056
:101A90004CF000C04BF0FFEC02F003C013F002C0AA
:101AA00012F001C011F000C010F0466A456A400E05
:101AB000446E830E436E13C04AF012C049F011C049
:101AC00048F010C047F0E5EC04F00FE213C046F018
:101AD00012C045F011C044F010C043F04A6A496A90
:101AE000486A476AE5EC04F015E3010E466E020E03
:101AF000476E32EC01F0340EF66E010EF76E64ECB8
:101B000001F0040E2C6EFA0E466EA3EC00F02C2EA3
:101B1000FAD7F2D52A2C12D122500A0DF350486A76
:101B2000476EE4EC02F003C017F002C016F001C0EB
:101B300015F000C014F0486A23C047F0E4EC02F04E
:101B4000D89217C04AF016C049F015C048F014C02A
:101B500047F003C04EF002C04DF001C04CF000C091
:101B60004BF0FFEC02F003C017F002C016F001C00A
:101B700015F000C014F024500A0DF3CF2DF02DC045
:101B80002EF03C0E2F6E74DD01500F0DF350486A9D
:101B9000476EE4EC02F0D89217C04AF016C049F044
:101BA00015C048F014C047F003C04EF002C04DF01D
:101BB00001C04CF000C04BF0FFEC02F003C017F086
:101BC00002C016F001C015F000C014F025C02EF0C0
:101BD0003C0E2F6E4DDD01500F0DF350486A476EDD
:101BE000E4EC02F0D89217C04AF016C049F015C0D4
:101BF00048F014C047F003C04EF002C04DF001C0E1
:101C00004CF000C04BF0FFEC02F003C017F002C034
:101C100016F001C015F000C014F026500A0DF3CFE5
:101C20002DF02F6A2DC02EF00E0E316E100E306E7C
:101C300033DD02C02DF001C02CF002C02FF001C036
:101C40002EF0316A0F0E306E48DD02C003F001C085
:101C500047F002C048F0E4EC02F0D89217C04AF016
:101C600016C049F015C048F014C047F003C04EF04C
:101C700002C04DF001C04CF000C04BF0FFEC02F090
:101C800003C017F002C016F001C015F000C014F038
:101C90002F6A27C02EF00E0E316E100E306EFCDC57
:101CA00002C02DF001C02CF002C02FF001C02EF0B8
:101CB000316A0F0E306E11DD02C003F001C047F033
:101CC00002C048F0E4EC02F0D89217C04AF016C007
:101CD00049F015C048F014C047F003C04EF002C0F0
:101CE0004DF001C04CF000C04BF0FFEC02F003C01F
:101CF00017F002C016F001C015F000C014F0486AD9
:101D000028C047F0E4EC02F017C04AF016C049F0D2
:101D100015C048F014C047F003C04EF002C04DF0AB
:101D200001C04CF000C04BF034EC04F003C017F0DD
:101D300002C016F001C015F000C014F02A2ADDD44C
:101D4000A6EC01F001C004F004500A0803E00450BE
:101D50000B08F6E104500A0801E1CED40BC046F0AE
:101D60000AC045F009C044F008C043F013C04AF06F
:101D700012C049F011C048F010C047F0E5EC04F083
:101D800070E30BC046F00AC045F009C044F008C03B
:101D900043F013C04AF012C049F011C048F010C01F
:101DA00047F0E5EC04F05CE30BC046F00AC045F0F8
:101DB00009C044F008C043F04A6A496A400E486EC0
:101DC000820E476EE5EC04F005E3020E2C6EE0ECAB
:101DD00008F004D0020E2C6EA9EC08F01BC04AF0EB
:101DE0001AC049F019C048F018C047F04E6A4D6A51
:101DF0004C6A810E4B6E34EC04F0D8920BC04AF062
:101E00000AC049F009C048F008C047F003C04EF0CE
:101E100002C04DF001C04CF000C04BF0FFEC02F0EE
:101E200003C00BF002C00AF001C009F000C008F0C6
:101E3000466A456A400E446E830E436E0BC04AF0FC
:101E40000AC049F009C048F008C047F0E5EC04F0CA
:101E500004E30B6A0A6A096A086A20EC05F091D764
:101E60006FD013C046F012C045F011C044F010C04E
:101E700043F00BC04AF00AC049F009C048F008C05E
:101E800047F0E5EC04F05CE30BC046F00AC045F017
:101E900009C044F008C043F04A6A496A400E486EDF
:101EA000820E476EE5EC04F005E306C02CF0A9ECC9
:101EB00008F004D006C02CF0E0EC08F01BC04AF09B
:101EC0001AC049F019C048F018C047F04E6A4D6A70
:101ED0004C6A810E4B6E34EC04F0D8820BC04AF091
:101EE0000AC049F009C048F008C047F003C04EF0EE
:101EF00002C04DF001C04CF000C04BF0FFEC02F00E
:101F000003C00BF002C00AF001C009F000C008F0E5
:101F10000BC046F00AC045F009C044F008C043F0C9
:101F20004A6A496A486A476AE5EC04F006E30B6AC4
:101F30000A6A400E096E830E086E20EC05F091D7F8
:101F4000020E2C6EFA0E466EA3EC00F02C2EFAD781
:101F50000FC046F00EC045F00DC044F00CC043F079
:101F600017C04AF016C049F015C048F014C047F039
:101F7000E5EC04F045E30FC046F00EC045F00DC09F
:101F800044F00CC043F017C04AF016C049F015C029
:101F900048F014C047F0E5EC04F031E31FC04AF00C
:101FA0001EC049F01DC048F01CC047F04E6A4D6A83
:101FB0004C6A810E4B6E34EC04F0D8920FC04AF09C
:101FC0000EC049F00DC048F00CC047F003C04EF001
:101FD00002C04DF001C04CF000C04BF0FFEC02F02D
:101FE00003C00FF002C00EF001C00DF000C00CF0F5
:101FF00006C02CF0E0EC08F020EC05F0BCD744D093
:1020000017C046F016C045F015C044F014C043F0A8
:102010000FC04AF00EC049F00DC048F00CC047F0A8
:10202000E5EC04F031E31FC04AF01EC049F01DC0CA
:1020300048F01CC047F04E6A4D6A4C6A810E4B6EE8
:1020400034EC04F0D8820FC04AF00EC049F00DC045
:1020500048F00CC047F003C04EF002C04DF001C084
:102060004CF000C04BF0FFEC02F003C00FF002C0D8
:102070000EF001C00DF000C00CF006C02CF0A9EC71
:1020800008F020EC05F0BCD780EF10F00C0E456E88
:1020900043EC01F0010E466E476E32EC01F0C20EC9
:1020A000F66E000EF76E64EC01F0050E466EA3ECC2
:1020B00000F0010E466E020E476E32EC01F0D40EB7
:1020C000F66E000EF76E64EC01F0050E466EA3ECA2
:1020D00000F0042C01D008D00450020805E0A6EC62
:1020E00001F001C004F0F5D7042C04D0046A17EF06
:1020F00009F006D00450020803E1046A7CEF0BF0FB
:10210000E1EF10F00C0E456E43EC01F0010E466E4F
:10211000476E32EC01F0E60EF66E000EF76E64ECE0
:1021200001F0050E466EA3EC00F0010E466E020EA5
:10213000476E32EC01F0F80EF66E000EF76E64ECAE
:1021400001F0050E466EA3EC00F0E2EF10F0F86A25
:10215000D09E046A056A050E066E300E076EAB0E41
:102160001B6EAA0E1A6E2A0E196E710E186E1F6A59
:102170001E6A1D6A760E1C6E240E206E010E216EE4
:10218000C150C00B0F09C16E070EB46EF19EF10E67
:10219000926EFF0E936EFE0E946EFF0E956E000E05
:1021A000966E806A816A826A836A846A02EF01F0AD
:1021B0002EEC01F074EF01F00FEF02F08FEF02F060
:1021C00065D7A0D720C02CF0E0EC08F0A6EC01F019
:1021D00001C004F004500A0801E1F2D7F3D703006C
:020000040030CA
:0E00000024CE381E0087A1000FC00FE00F4075
:00000001FF
;PIC18F4550
;CRC=89B1  CREATED="13-nov-20 13:00"
